:020000040000fa
:080000000002040000000000f2
:020000040000fa
:040008007803000079
:020000040000fa
:04000c00ba03000033
:020000040000fa
:04001000fa030000ef
:020000040000fa
:04001400980300004d
:020000040000fa
:04001800da03000007
:020000040000fa
:04001c004604000096
:020000040000fa
:040020001a040000be
:020000040000fa
:04002400460400008e
:020000040000fa
:04002800460400008a
:020000040000fa
:04002c000a030000c3
:020000040000fa
:040030004604000082
:020000040000fa
:040034004003000085
:020000040000fa
:04003800460400007a
:020000040000fa
:04003c004604000076
:020000040000fa
:040040004604000072
:020000040000fa
:04004400460400006e
:020000040000fa
:04004800460400006a
:020000040000fa
:04004c004604000066
:020000040000fa
:040050004604000062
:020000040000fa
:04005400460400005e
:020000040000fa
:04005800460400005a
:020000040000fa
:04005c004604000056
:020000040000fa
:040060004604000052
:020000040000fa
:04006400460400004e
:020000040000fa
:04006800460400004a
:020000040000fa
:04006c004604000046
:020000040000fa
:040070004604000042
:020000040000fa
:04007400460400003e
:020000040000fa
:04007800460400003a
:020000040000fa
:04007c004604000036
:020000040000fa
:040080004604000032
:020000040000fa
:04008400460400002e
:020000040000fa
:04008800460400002a
:020000040000fa
:04008c004604000026
:020000040000fa
:040090004604000022
:020000040000fa
:04009400460400001e
:020000040000fa
:04009800460400001a
:020000040000fa
:04009c004604000016
:020000040000fa
:0400a0004604000012
:020000040000fa
:0400a400460400000e
:020000040000fa
:0400a800460400000a
:020000040000fa
:0400ac004604000006
:020000040000fa
:0400b0004604000002
:020000040000fa
:0400b40046040000fe
:020000040000fa
:0400b80046040000fa
:020000040000fa
:0400bc0046040000f6
:020000040000fa
:0400c00046040000f2
:020000040000fa
:0400c40046040000ee
:020000040000fa
:0400c80046040000ea
:020000040000fa
:0400cc0046040000e6
:020000040000fa
:0400d00046040000e2
:020000040000fa
:0400d40046040000de
:020000040000fa
:0400d80046040000da
:020000040000fa
:0400dc0046040000d6
:020000040000fa
:0400e00046040000d2
:020000040000fa
:0400e40046040000ce
:020000040000fa
:0400e80046040000ca
:020000040000fa
:0400ec0046040000c6
:020000040000fa
:0400f00046040000c2
:020000040000fa
:0400f40046040000be
:020000040000fa
:0400f80046040000ba
:020000040000fa
:0400fc0046040000b6
:020000040000fa
:0401000046040000b1
:020000040000fa
:0401040046040000ad
:020000040000fa
:0401080046040000a9
:020000040000fa
:04010c0046040000a5
:020000040000fa
:0401100046040000a1
:020000040000fa
:04011400460400009d
:020000040000fa
:040118004604000099
:020000040000fa
:04011c004604000095
:020000040000fa
:040120004604000091
:020000040000fa
:04012400460400008d
:020000040000fa
:040128004604000089
:020000040000fa
:04012c004604000085
:020000040000fa
:040130004604000081
:020000040000fa
:04013400460400007d
:020000040000fa
:040138004604000079
:020000040000fa
:04013c004604000075
:020000040000fa
:040140004604000071
:020000040000fa
:04014400460400006d
:020000040000fa
:040148004604000069
:020000040000fa
:04014c004604000065
:020000040000fa
:040150004604000061
:020000040000fa
:04015400460400005d
:020000040000fa
:040158004604000059
:020000040000fa
:04015c004604000055
:020000040000fa
:040160004604000051
:020000040000fa
:04016400460400004d
:020000040000fa
:040168004604000049
:020000040000fa
:04016c004604000045
:020000040000fa
:040170004604000041
:020000040000fa
:04017400460400003d
:020000040000fa
:040178004604000039
:020000040000fa
:04017c004604000035
:020000040000fa
:040180004604000031
:020000040000fa
:04018400460400002d
:020000040000fa
:040188004604000029
:020000040000fa
:04018c004604000025
:020000040000fa
:040190004604000021
:020000040000fa
:04019400460400001d
:020000040000fa
:040198004604000019
:020000040000fa
:04019c004604000015
:020000040000fa
:0401a0004604000011
:020000040000fa
:0401a400460400000d
:020000040000fa
:0401a8004604000009
:020000040000fa
:0401ac004604000005
:020000040000fa
:0401b0004604000001
:020000040000fa
:0401b40046040000fd
:020000040000fa
:0401b80046040000f9
:020000040000fa
:0401bc0046040000f5
:020000040000fa
:0401c00046040000f1
:020000040000fa
:0401c40046040000ed
:020000040000fa
:0401c80046040000e9
:020000040000fa
:0401cc0046040000e5
:020000040000fa
:0401d00046040000e1
:020000040000fa
:0401d40046040000dd
:020000040000fa
:0401d80046040000d9
:020000040000fa
:0401dc0046040000d5
:020000040000fa
:0401e00046040000d1
:020000040000fa
:0401e40046040000cd
:020000040000fa
:0401e80046040000c9
:020000040000fa
:0401ec0046040000c5
:020000040000fa
:0401f00046040000c1
:020000040000fa
:0401f40046040000bd
:020000040000fa
:0401f80046040000b9
:020000040000fa
:0401fc0046040000b5
:020000040000fa
:0402000046040000b0
:020000040000fa
:0402040046040000ac
:020000040000fa
:0402080046040000a8
:020000040000fa
:04020c0046040000a4
:020000040000fa
:0402100046040000a0
:020000040000fa
:04021400460400009c
:020000040000fa
:040218004604000098
:020000040000fa
:04021c004604000094
:020000040000fa
:040220004604000090
:020000040000fa
:04022400460400008c
:020000040000fa
:040228004604000088
:020000040000fa
:04022c004604000084
:020000040000fa
:040230004604000080
:020000040000fa
:04023400460400007c
:020000040000fa
:040238004604000078
:020000040000fa
:04023c004604000074
:020000040000fa
:040240004604000070
:020000040000fa
:04024400460400006c
:020000040000fa
:040248004604000068
:020000040000fa
:04024c004604000064
:020000040000fa
:040250004604000060
:020000040000fa
:04025400460400005c
:020000040000fa
:040258004604000058
:020000040000fa
:04025c004604000054
:020000040000fa
:040260004604000050
:020000040000fa
:04026400460400004c
:020000040000fa
:040268004604000048
:020000040000fa
:04026c004604000044
:020000040000fa
:040270004604000040
:020000040000fa
:04027400460400003c
:020000040000fa
:040278004604000038
:020000040000fa
:04027c004604000034
:020000040000fa
:040280004604000030
:020000040000fa
:04028400460400002c
:020000040000fa
:040288004604000028
:020000040000fa
:04028c004604000024
:020000040000fa
:040290004604000020
:020000040000fa
:04029400460400001c
:020000040000fa
:040298004604000018
:020000040000fa
:04029c004604000014
:020000040000fa
:0402a0004604000010
:020000040000fa
:0402a400460400000c
:020000040000fa
:0402a8004604000008
:020000040000fa
:0402ac004604000004
:020000040000fa
:0402b0004604000000
:020000040000fa
:0402b40046040000fc
:020000040000fa
:0402b80046040000f8
:020000040000fa
:0402bc0046040000f4
:020000040000fa
:0402c00046040000f0
:020000040000fa
:0402c40046040000ec
:020000040000fa
:0402c80046040000e8
:020000040000fa
:0402cc0046040000e4
:020000040000fa
:0402d00046040000e0
:020000040000fa
:0402d40046040000dc
:020000040000fa
:0402d80046040000d8
:020000040000fa
:0402dc0046040000d4
:020000040000fa
:0402e00046040000d0
:020000040000fa
:0402e40046040000cc
:020000040000fa
:0402e80046040000c8
:020000040000fa
:0402ec0046040000c4
:020000040000fa
:0402f00046040000c0
:020000040000fa
:0402f40046040000bc
:020000040000fa
:0402f80046040000b8
:020000040000fa
:0402fc0046040000b4
:020000040000fa
:0403000046040000af
:020000040000fa
:0403040046040000ab
:020000040000fa
:0403080046040000a7
:020000040000fa
:04030c0046040000a3
:020000040000fa
:04031000460400009f
:020000040000fa
:04031400460400009b
:020000040000fa
:040318004604000097
:020000040000fa
:04031c004604000093
:020000040000fa
:04032000460400008f
:020000040000fa
:04032400460400008b
:020000040000fa
:100400004f0321000eff22000e01880000000000b3
:10041000000020000000e000020032000001200087
:1004200020028800140007001a0107000000e00005
:1004300003003a00609a200001002000020037000b
:100440000000200001002000810f70000100320038
:100450000f000700000020000000e0000200320052
:1004600000000200000000000a0802000000000076
:100470000040da000000fe00200020000000e00044
:1004800002003200100020009001880000000600e9
:10049000a1028800800478000000eb001f003700f4
:1004a000e284440054a0b4009905ba00e2844400f8
:1004b00054a0b4009906ba00e284440054a0b400e9
:1004c0000006eb00476fde00fd07b200ae018800ba
:1004d000636ce10003003a000ad801000000eb0061
:1004e0000e003700606ce10008003a00004deb00a0
:1004f0000a05e800020039003420ec000af0a000f0
:100500008b05e900f9ff3e00040037006168e10057
:10051000010032000086eb000b00070019c7ba008b
:100520001905ba000e04e00003003a000a00e000da
:10053000dbff3a0000000600fe07b200ae028800b2
:100540008a047800f5ff37000cd0a300e20f4d00bd
:100550001c003b0089027800354dba000a05e8000e
:10056000020039003420ec000af0a0008b05e900fd
:100570000f003200254dba000a05e80002003900dc
:100580003420ec000af0a0008b05e90008003200de
:100590000c00e0000600320015cdba000a05e800a4
:1005a000020039003420ec000af0a0008b05e900bd
:1005b0008984e80054a0b4000b00e000e2ff3a0098
:1005c000000006009902ba00055d78008b05e9007d
:1005d000f7ff3200c82ade00055d78008b05e900d0
:1005e000f3ff32000c00e000f1ff320019ddba0029
:1005f000eeff3700000000000000000000000000d7
:1006000000000000000000000000000000000000ea
:10061000000000003600f800809fbe00829fbe00f0
:10062000849fbe00869fbe000000fa0060808000ac
:100630000000e00002003200608080000000010045
:1006400030032100104078008040e8003003210092
:10065000014878002003210011c0b3000148780050
:100660000028a9000080fa004f03be004f02be0020
:100670004f01be004f00be003600f90000400600ea
:100680003600f800809fbe00829fbe00849fbe009f
:10069000869fbe000000fa000040800068006000f5
:1006a0000000e0000b0032009071800070006000dc
:1006b0000000e00006003200708080000000e000d2
:1006c000020032007080800000000100328ea9001c
:1006d0000068a9000080fa004f03be004f02be0070
:1006e0004f01be004f00be003600f900004006007a
:1006f0003600f800809fbe00829fbe00849fbe002f
:10070000869fbe000000fa00c028a9000000eb0090
:10071000440307000080fa004f03be004f02be00f2
:100720004f01be004f00be003600f9000040060039
:100730003600f800809fbe00829fbe00849fbe00ee
:10074000869fbe000000fa003d030700c048a900d4
:1007500010002000330307000080fa004f03be00a2
:100760004f02be004f01be004f00be003600f90030
:10077000004006003600f800809fbe00829fbe0049
:10078000849fbe00869fbe000000fa00c068a900da
:1007900020002000230307000080fa004f03be0062
:1007a0004f02be004f01be004f00be003600f900f0
:1007b000004006003600f800809fbe00829fbe0009
:1007c000849fbe00869fbe000000fa00c088a9007a
:1007d00030002000130307000080fa004f03be0022
:1007e0004f02be004f01be004f00be003600f900b0
:1007f000004006003600f800809fbe00829fbe00c9
:10080000849fbe00869fbe000000fa00c608a900b3
:1008100070002000030307000080fa004f03be00b1
:100820004f02be004f01be004f00be003600f9006f
:10083000004006003600f800809fbe00829fbe0088
:10084000849fbe00869fbe000000fa002146800003
:1008500000102000008060000000e0000300320073
:10086000c508a900c0002000ee0207002046800055
:10087000700060000000e00003003200c488a9009e
:10088000a0002000e7020700ffff37000040da0069
:080890000000fe00000005005d
:020000040000fa
:100898000000fa00200120005019880020012000e3
:1008a800001b880020012000b01c880000032000e5
:1008b800001888000223ef000423ef000623ef004e
:1008c8000823ef000a23ef000c23ef000e23ef00ac
:1008d8001023ef001223ef001423ef001623ef007c
:1008e8001823ef001a23ef001c23ef001e23ef004c
:1008f8002023ef002223ef002423ef002623ef001c
:100908002823ef002c23ef006223ef009823ef0049
:100918002e23ef006423ef009a23ef003023ef002b
:100928006623ef009c23ef00c00120009019880087
:10093800c0012000401b8800c0012000f01c880076
:100948003423ef006a23ef00a023ef003623ef00e3
:100958006c23ef00a223ef003823ef006e23ef0093
:10096800a423ef003a23ef007023ef00a623ef0043
:100978003c23ef007223ef00a823ef003e23ef0093
:100988007423ef00aa23ef004023ef007623ef0043
:10099800ac23ef004223ef007823ef00ae23ef00f3
:1009a8004423ef007a23ef00b023ef004623ef0043
:1009b8007c23ef00b223ef004823ef007e23ef00f3
:1009c800b423ef004a23ef008023ef00b623ef00a3
:1009d8004c23ef008223ef00b823ef00803821007a
:1009e800701a880080382100201c88008038210077
:1009f800d01d88005023ef008623ef00bc23ef00b2
:100a0800f0702200901a8800f0702200401c8800c4
:100a1800f0702200f01d88005423ef008a23ef00b5
:100a2800c023ef005623ef008c23ef00c223ef0012
:100a38005823ef008e23ef00c423ef005a23ef0062
:100a48009023ef00c623ef005c23ef009223ef0012
:100a5800c823ef002be3a8000080fa00000006007e
:100a68000000fa000080fa00000006000000fa000a
:100a780040408000680060000000e0000200320092
:100a8800f7ff07000868a9000080fa0000000600c8
:100a98000000fa000080fa00000006000000fa00da
:100aa80040408000700060000000e000020032005a
:100ab800f7ff07000888a9000080fa000000060078
:100ac8000000fa000080fa00000006000000fa00aa
:100ad8004140800000022000008060000000e0002b
:100ae80002003200f6ff070008a8a9000080fa00fb
:100af800000006000000fa000080fa00000006006e
:100b08000000fa00a1408000002020000080600062
:100b18000000e00002003200f6ff07001528a900d7
:100b28000080fa00000006000000fa000080fa00c9
:100b3800000006000000fa00a140800000402000ec
:100b4800008060000000e00002003200f6ff0700ad
:100b58001548a9000080fa00000006000000fa000d
:100b68000080fa00000006000000fa00a1408000a2
:100b780000802000008060000000e00002003200d9
:100b8800f6ff07001568a9000080fa0000000600bb
:100b98000000fa000080fa00000006000000fa00d9
:100ba800a140800000002100008060000000e000fb
:100bb80002003200f6ff07001588a9000080fa003d
:100bc800000006000000fa000080fa00000006009d
:100bd8000000fa00a14080000000220000806000b0
:100be8000000e00002003200f6ff070015a8a90087
:100bf8000080fa00000006000000fa000080fa00f9
:100c0800000006000000fa00a14080000000240057
:100c1800008060000000e00002003200f6ff0700dc
:100c280015c8a9000080fa00000006000000fa00bc
:100c3800007c80000080fa00000006000200fa0034
:100c4800faff0700000f78001e0078002400070054
:100c58000004e000020032000000280071000700d4
:100c68001e0078002a0007000004e000020032009d
:100c7800000024006b0007001e0078003200070007
:100c88000004e00002003200002020006500070098
:100c98001e0078003a0007000004e000020032005d
:100ca800000820005f0007001e00780042000700cf
:100cb8000004e00002003200000420005900070090
:100cc8001e0078004a0007000004e000020032001d
:100cd80000012000530007000080fa000000060011
:100ce8000400fa00100798000040eb00004f78005d
:100cf8001e0090000000e00002003d0010c0b3009c
:100d0800004f78001e4078000080fa0000000600be
:100d18000400fa00100798000040eb00004f78002c
:100d28009e00900000002400008060000000e000a9
:100d38000200320010c0b300004f78001e40780057
:100d48000080fa00000006000400fa00100798006e
:100d58000040eb00004f78009e009000002020002b
:100d6800008060000000e0000200320010c0b30004
:100d7800004f78001e4078000080fa00000006004e
:100d88000400fa00100798000040eb00004f7800bc
:100d98009e00900000082000008060000000e00035
:100da8000200320010c0b300004f78001e407800e7
:100db8000080fa00000006000400fa0010079800fe
:100dc8000040eb00004f78009e00900000042000d7
:100dd800008060000000e0000200320010c0b30094
:100de800004f78001e4078000080fa0000000600de
:100df8000400fa00100798000040eb00004f78004c
:100e08001e009000700060000000e0000200320048
:100e180010c0b300004f78001e4078000080fa0030
:100e2800000006000200fa00000f78009e80ea0029
:100e3800007c800000806000007c88000080fa0050
:100e4800000006000000fa00802fef000080fa0082
:100e5800000006000000fa000028a90006d0bf0024
:100e6800e14f50003b003a00208080000000e8007d
:100e780020808800408080006a0040004080880010
:100e880041808000f02b2100808f50000200360046
:100e9800002c210040808800508080006a004000bb
:100ea800508088005180800070642200808f50003c
:100eb8000200360080642200508088002080800074
:100ec800e10f500007003a0040808000201c880095
:100ed80050808000601c88006463a80061e3a8005b
:100ee8003f00370020808000e20f500007003a00e2
:100ef80040808000d01d880050808000101e88002f
:100f08009a63a80097e3a800350037004006200040
:100f18002080880040808000701a880050808000ff
:100f2800b01a88002e63a80040808000201c88002a
:100f380050808000601c88006463a80040808000a6
:100f4800d01d880050808000101e88009a63a80079
:100f58002300370006d0bf000004e00020003a005c
:100f6800408080006a0050004080880040808000f7
:100f7800f40f500002003e00b000200040808800be
:100f8800508080006a0050005080880051808000a6
:100f9800703f2100808f500002003e00703f21000a
:100fa8005080880040808000701a8800508080003f
:100fb800b01a88002e63a80040808000201c88009a
:100fc80050808000601c88006463a8004080800016
:100fd800d01d880050808000101e88009a63a800e9
:100fe8000080fa00000006000000fa0006d0bf00ea
:100ff8000080fb000000e9004f00de0000407800a0
:1010080006f0b7000080fa00000006000000fa00b1
:10101800f7000700e07220003d000700807f2000f5
:101028009600070080382100a01a880040808000c0
:10103800b01a880050808000701a88002e63a800bb
:1010480080382100501c880080382100001e88004c
:10105800ffff37000000fa000421ef0010d0200045
:10106800400888000001280000088800608080008f
:101078000000e00002003a00608820002400070019
:101088000028a9002028a800200321008040eb00a8
:10109800014878000080fa00000006000200fa000b
:1010a800000f78009e007800410888002003210086
:1010b8008040eb00014878000080fa00000006003c
:1010c8000000fa00400880000080fa0000000600d6
:1010d8000200fa00000f78009e00780021088800be
:1010e800200321008040eb00014878000080fa00ce
:1010f800000006000000fa00200880000080fa00c6
:10110800000006000000fa000080fa000000060057
:101118000200fa00000f78002028a9009e0078003d
:10112800618088002028a8000080fa0000000600de
:101138000000fa00200321008040eb0001487800fd
:101148002028a80001e1a8000080fa00000006009d
:101158000000fa0001e1a9002028a9000080fa0097
:10116800000006000200fa0020032100104f78005a
:101178001e4078000004e000030032002003210034
:101188008040eb00014878001e4078000080fa009b
:10119800000006000000fa0030032100104078002b
:1011a8000080fb000080fa00000006000000fa0042
:1011b800300321008040eb00014878000080fa00ed
:1011c800000006000000fa00062eef00222eef00b5
:1011d8003e2eef005a2eef00f0012000107088001c
:1011e800d03f2000f0708800f0ff2300d071880005
:1011f80020102200b07288000c2eef00282eef007d
:10120800442eef00602eef000a2eef00262eef008e
:10121800422eef005e2eef00082eef00242eef0086
:10122800402eef005c2eef00f001200000708800d7
:10123800d0082000e0708800f00c2000c071880001
:1012480000002200a0728800308ea800328ea9000b
:101258002b6ea8002beea800c09320000700070003
:101268000068a9002068a8000080fa0000000600b5
:101278000000fa000080fa00000006000200fa00f0
:10128800000f78002068a9009e007800718088000f
:101298002068a8000080fa00000006000200fa009a
:1012a800000f78001e007800f4ff07000080fa00a5
:1012b800000006000000fa0010002300307c8800bf
:1012c80060092000407c88008c2fef00100420006b
:1012d800507c8800b82fef00ba2fef00be2fef0028
:1012e800002def00a02fef00a42fef00a62fef0096
:1012f800a82fef00aa2fef00ae2fef00b02fef00be
:10130800b22fef007200200080072000a109200002
:1013180053f8200080497800814978008249780094
:101328000001eb00600420007105200043f8200054
:101338008049780081497800824978000080fa0065
:04134800000006009b
:020000040000fa
:10134c0000100000040000008000000032100000bb
:10135c0002000000800000000c10000002000000e1
:10136c00800000000e100000020000008000000051
:10137c00121000002000000080000000101000007f
:10138c000200000082000000ffff000004100000bb
:10139c0004000000800000000810000004000000a1
:1013ac00820000000b0092001300000000000000ff
:020000040000fa
:1013bc000200fa00000f780021028000200f2000ac
:1013cc00008060001e007000200288000080fa007f
:1013dc00000006000000fa00c3e8a80000000000ae
:1013ec00000000000080fa00000006000000fa0077
:1013fc0073ff070016000700adff070023fd070071
:10140c0013ff0700f3ff070000022000e8ff0700ae
:10141c000080fa00000006000200fa00000f7800bd
:10142c009e007800818088000000fe000080fa0099
:10143c00000006000000fa0020012100800778005f
:10144c00a0022100000188000080fa0000000600c4
:10145c000000fa0001428000f0ff280000806000cc
:10146c0000c0a0000042880001428000f0f82f006c
:10147c00008060000040a000004288000080fa005c
:10148c0000000600809fbe00ec8057003100780001
:10149c00008088001100780002f0b7004f00be00f9
:0414ac000000060036
:020000040000fa
:020000040001f9
:045e0000ffffff00a1
:020000040000fa
:020000040001f9
:045e2000ffffff0081
:020000040000fa
:020000040001f9
:045e30007fffff00f1
:020000040000fa
:020000040001f9
:045e3800bfffff00a9
:020000040000fa
:020000040001f9
:045e40007f7fff0061
:020000040000fa
:020000040001f9
:045e4800ffffff0059
:020000040000fa
:020000040001f9
:045e5000dfffff0071
:020000040000fa
:020000040001f9
:045e58000000ff0047
:020000040000fa
:020000040001f9
:045e60000000ff003f
:020000040000fa
:020000040001f9
:045e68000000ff0037
:020000040000fa
:020000040001f9
:045e70000000ff002f
:020000040000fa
:020000040001f9
:045e7800ffffff0029
:020000040000fa
:020000040001f9
:045e8000fffcff0024
:020000040000fa
:020000040001f9
:045e8800ffffff0019
:00000001FF
